:020000041000EA
:1000000000B5324B212058609868022188439860DF
:10001000D860186158612E4B002199600221596106
:100020000121F02299502B49196001219960352056
:1000300000F044F80222904214D00621196600F024
:1000400034F8196E01211966002018661A6600F04E
:100050002CF8196E196E196E052000F02FF8012189
:100060000842F9D1002199601B49196000215960AB
:100070001A491B48016001219960EB211966A021F2
:10008000196600F012F800219960164914480160C1
:100090000121996001BC002800D000471248134993
:1000A000086003C880F30888084703B5996A0420EC
:1000B0000142FBD001200142F8D103BD02B5186610
:1000C0001866FFF7F2FF186E186E02BD00000240BE
:1000D000000000180000070000035F00212200005C
:1000E000F4000018222000A00001001008ED00E03C
:1000F00000000000000000000000000074B24E7A12
:1001000000200420F7010010C3010010C5010010F9
:10011000C1010010C1010010C1010010C101001097
:10012000C1010010C1010010C1010010C701001081
:10013000C1010010C1010010C9010010CB01001065
:10014000CD010010CD010010CD010010CD01001037
:10015000CD010010CD010010CD010010CD01001027
:10016000CD010010CD010010CD010010CD01001017
:10017000CD010010CD010010CD010010CD01001007
:10018000CD010010CD010010CD010010CD010010F7
:10019000CD010010CD010010CD010010CD010010E7
:1001A000CD010010CD010010CD010010CD010010D7
:1001B000CD010010CD010010CD010010CD010010C7
:1001C00000BE00BE00BE00BE00BE00BEEFF3058054
:1001D000103800BEF2EB8871D4680010F868001087
:1001E0003802001090A31AE71E481F49086006C88D
:1001F00081F3088810471D480068002801D019487D
:10020000F3E70DA40ECC002902D000F012F8F9E7B4
:100210001749184A002000E001C19142FCD116495B
:100220008847164988471649884700BEFDE701C937
:1002300001C29A42FBD37047F8680010C00000204A
:10024000C8150020007E00100000042000000420DB
:10025000007E0010001004200010042000000000A8
:10026000704700000000000008ED00E0000000D032
:10027000C8150020F0270020E52A0010A90400106E
:10028000DD2A0010F8B5C04606480749091A8B1048
:10029000C90FC91810B5491003D0044B002B00D06A
:1002A000984710BDC8150020C815002000000000A8
:1002B000054B10B5002B03D00449054800E000BFF2
:1002C000FFF7E2FF10BDC0460000000060260020DE
:1002D0005C620010F8B5050001F0CCFF164E174A1D
:1002E00033680400C31A934204D9052D03D0162D98
:1002F00008D03460F8BD0121114A346013784B40B6
:100300001370F7E7D021802009064B6800010340F5
:100310005D425D410B4A1570002B0AD148610123F3
:10032000094A0A4811784B40137000F0C5FA34604E
:10033000E0E78861F3E7C04650260020400D030047
:10034000990F0020EE270020980F0020B0270020F2
:10035000F0B5DE4657464E464546E0B583B002F05E
:10036000C1FC494D4949280005F0DAF903210E2066
:1003700000F0B6FE03210F2000F0B2FE00220121A2
:100380000E2000F0C7FE002201210F2000F0C2FE67
:100390003C233F4C40228021200001950093002304
:1003A00000F042F9200000F059F9200000F03EFA78
:1003B00005F0D2F81F211B2000F092FE0022002140
:1003C0001B2000F0A7FE00211B2000F01FFF1F21B3
:1003D0001A2000F085FE002200211A2000F09AFE6B
:1003E00000211A2000F012FF162000F023FFD02475
:1003F00080232406DB03A36200220121162000F0E3
:1004000089FE052000F016FF20230022A3620121AF
:10041000052000F07FFE0B2000F00CFF80231B0165
:10042000636204210C2000F05BFE0622194B1A4D7A
:100430001A6080235B00EB679B46783B98468023DD
:100440005B019A469146434652460124EA502200F7
:10045000124F134E3B6804219A4332600D2000F086
:100460003FFE4A460F4B1A605B465246EB674346D7
:10047000EA503B689C43346003B0F0BCBB46B246D4
:10048000A946A046F0BDC04658100020801A0600BC
:10049000B0270020A8270020000005407800054074
:1004A00078100540AC270020F0B5DE4657464E4692
:1004B0004546E0B589B0FFF74BFF4E4802F062FCBD
:1004C0004D4C012223000421052000F037FE2300BB
:1004D00001220421162000F031FE484B484F984677
:1004E000484B494C0593494B9B46494B0693494B16
:1004F0000793E023DB019A46474B9946524623680F
:10050000012013404A460021136001F001FE04223D
:10051000424B1A60FC3223681342FCD042466368A7
:1005200001201380802322685B0153405246134010
:100530004A460021136001F0EBFD0422374B1A609C
:10054000FC3223681342FCD06668059BB6B21E805D
:1005500043461C21188802F07DF95B4685B2197864
:10056000380000F0A9F95B4601221B7803210293B1
:10057000534001933A23380000930232403300F095
:10058000DBF94521300002F065F9031C80B2382800
:1005900000D93823DBB22A1C792D00D9792206999B
:1005A0003800D2B200F042FC380000F03FF9079B5F
:1005B0001B491B78002B13D043460A681B88534005
:1005C0001B04184A1B0C1360059B09681B881B043D
:1005D0004B401B0C1B041360642001F0ADFD8DE744
:1005E0000B68104A1B041B0C13600B681B0C1B04CC
:1005F0001360F1E760620010D5020010E2270020CE
:10060000B0270020E427002000C00440980F0020FD
:100610005C620010990F002000D0044000E004400C
:10062000840005408410054070B50400D00804AB78
:1006300005041B78484312020A432A431B061A4347
:10064000059B0130636001212260206102F0E2F924
:10065000402303704033E060237570BD70B5060021
:100660000025AE2382B014360400C17843753200F1
:100670004068AC3B009505F07BF82023E17863757A
:10068000320060681E3B009505F072F80123E178A6
:100690006375320060680133009505F069F8402306
:1006A000E1786375320060683E3B009505F060F8C4
:1006B000A123E1786375320060689F3B009505F0E7
:1006C00057F8A823E178637532006068A63B00956F
:1006D00005F04EF83F23E1786375320060683D3BDA
:1006E000009505F045F8C823E1786375320060682D
:1006F000C63B009505F03CF8D323E17863753200E2
:100700006068D13B009505F033F8E178320060680D
:1007100065750223009505F02BF8DA23E1786375FF
:1007200032006068D83B009505F022F81223E1788A
:10073000637532006068103B009505F019F8D52309
:10074000E178637532006068D33B009505F010F8DE
:100750008023E1786375320060687E3B009505F088
:1007600007F8D923E178637532006068D73B0095BC
:1007700004F0FEFFF123E178637532006068EF3B1F
:10078000009504F0F5FFDB23E178637532006068C3
:10079000D93B009504F0ECFF3023E178637532001B
:1007A00060682E3B009504F0E3FF8123E1786375D8
:1007B000320060687F3B009504F0DAFFFF23E178A8
:1007C000637532006068FD3B009504F0D1FFA423FF
:1007D000E178637532006068A23B009504F0C8FFC1
:1007E000A623E178637532006068A43B009504F0AD
:1007F000BFFF8D23E1786375320060688B3B009505
:1008000004F0B6FF1423E178637532006068123B90
:10081000009504F0ADFFAF23E178637560683200A6
:100820000095AD3B04F0A4FF02B070BD70B50600AA
:1008300000252123040082B01436C17843753200AC
:1008400040681F3B009504F093FFE1783200606838
:1008500065750223009504F08BFF2378E178013B56
:100860006375320060680223009504F081FF222343
:10087000E178637532006068203B009504F078FFF2
:10088000E1783200606865750223009504F070FF1E
:10089000A378E178013B637532006068022300951C
:1008A00004F066FF2369E268E1786068009504F06F
:1008B0005FFF02B070BDC0464378F0B5002B20D07A
:1008C000072300269C460127047800291FD1002C0D
:1008D00017D063463D0033409D40ED430023F208AE
:1008E000EDB20132C4680133A15CDBB22940A154EE
:1008F000047808329C42F5D801364378F6B2B34208
:10090000E5D8F0BD01364378F6B2B342F9D9002CF0
:10091000F7D063463D0033409D400023F208EDB21E
:100920000132C4680133A15CDBB22943A1540478CD
:1009300008329C42F5D8E5E7F0B5DE465746454615
:100940004E469B46E0B585B00EAB15001A780FAB4E
:100950001B780C00009310AB1B7801935B465F196A
:10096000BD4200DB1CE1CB08013301269C46072376
:1009700099460B4031009940531EE318DBB20291B7
:10098000D908884601218A4649460B409E40009B73
:10099000D044002B00D08CE0029BF643D943CBB26D
:1009A0009A46F3B2994611002B004A46B94657467B
:1009B0008A46029403956446C668D9006518745D3A
:1009C00041443C407455C56801336C5CDBB2144053
:1009D0006C549945EFDC5246029C4F461319039D17
:1009E0009C422ADA5E46EA0001329046013EAE1988
:1009F000F6B2F600013607218A460639AB462200D8
:100A0000454689469C46B0460297039454464F4655
:100A10001440A740C368D1086E189C5D4144BC4394
:100A20009C55C4680132635CD2B2BB4363549445A5
:100A3000ECDC63465D46029F039C019A002A00D1CC
:100A400083E06A1C791ED2B28A4691427DDD611C28
:100A5000013BC9B28B4278DD00990235002900D0F4
:100A60007AE0D20001329446A21C90460200E9B21C
:100A7000180089466346012694464246D4B20727A9
:100A8000611EC9B2CA083940370065468F40ED681B
:100A90009A1892B2A95CB943A95422000134904239
:100AA000EDDC4A46083301329BB2CA454DDD914622
:100AB000E3E76B461B7A39009946F6B24F469246F9
:100AC0002B0032008946029403956446C668D9001B
:100AD0000D19745D41443C437455C56801336C5C29
:100AE000DBB214436C544B45EFDB5246029C4F463D
:100AF0001319039D9C42A0DA5E46EA00013290463B
:100B0000013EAE19F6B2F600013607218A460639D3
:100B1000AB462200454689469C46B0460297039460
:100B200051464F4611408F40C368D4082E19F9B280
:100B30009F5D44440F439F55C36801321E5DD2B28E
:100B4000314319556245EBDB73E705B0F0BCBB469A
:100B5000B246A946A046F0BDE9B2D500A21C904617
:100B600001228946944601354246D4B20727611EC8
:100B7000C9B2CA08394067468F403900C668AA180A
:100B800092B2B75C3943B154220001349342EDDC98
:100B90004A4608350132ADB2D145D6DA9146E3E78F
:100BA00053188B4200DC48E75E46EA00013E013202
:100BB000AE199046F6B2009AF6000136002A00D12E
:100BC00019E7A2E7F0B5DE4657464E4645460C000B
:100BD000E0B5413C99B0192C00D90EE13639C90075
:100BE00089B28846D90807240131069101212500E0
:100BF0000E001D40AE403500F643EDB208955D1C79
:100C0000F6B2EDB20796EE08013617960E002540B3
:100C1000AE403500F643EDB20A959D1CEDB2F7B239
:100C2000EE080997771C0E002540AE403500F643CC
:100C3000EDB20C95DD1CEDB20497F7B2EE080B9700
:100C4000771C0E002540AE403500F643EDB20E9500
:100C50001D1DEDB20397F7B2EE080D97771C0E003D
:100C60002540AE403500F643EDB210955D1DEDB266
:100C70000197F7B2EE080F97771C0E002540AE40A3
:100C80003500F643EDB212959D1DEDB20297F7B215
:100C9000EE081197771C0E0007332540DBB2AE40FB
:100CA0001C40A140F5B21495DD08CB43DBB215938F
:100CB000CBB2169313000135AC4608335A4DDBB264
:100CC000454498460123994663460097F7430593A8
:100CD00043460699179EFFB28C46B046139706937B
:100CE0005BE0079F3C4034704446C768E4183E19F7
:100CF0003C5D02270F4200D07CE0099F3C403470ED
:100D0000049CC768E4183E193C5D04270F426ED16D
:100D10000B9F3C403470039CC768E4183E193C5D4F
:100D200008270F4260D10D9F3C403470019CC7687A
:100D3000E4183E193C5D10270F4252D10F9F3C40F2
:100D40003470029CC768E4183E193C5D20270F42AE
:100D500044D1119F3C403470009CC668E418371998
:100D6000345D4026BB460E4235D1139E34405E466C
:100D70003470059C49B2A246C4685344E618B24692
:100D8000E35C002916DB159901320B4051460B70CC
:100D9000069BD2B20135934216D06446C768D30091
:100DA000E4183E193C5D4F4629780F4299D0089FC0
:100DB0003C4398E7169901320B4351460B70069B52
:100DC000D2B201359342E8D119B0F0BCBB46B2466D
:100DD000A946A046F0BD149E3443C8E7129F3C4389
:100DE000B9E7109F3C43ABE70E9F3C439DE70C9F48
:100DF0003C438FE70A9F3C4381E70C00613C192C80
:100E000004D83C39C90089B28846EBE60C00303C76
:100E1000092C04D92A29D7D122398846E2E62F396C
:100E2000C90089B28846DDE610640010F8B50700F5
:100E30000E0014001D0014E0220008342B003800BE
:100E4000E4B2FFF7BFFE22003B78083201369A4237
:100E500002DB00240835EDB22B007A780833934288
:100E600002DA31780029E7D1F8BDC046D0231B064D
:100E70001B68974A9900F0B54E46894651585A4228
:100E800053412F2257464546DE465B4293439846E0
:100E9000904BE0B59C4683B000270191E0440029C7
:100EA00039D08D4B0F269B464246FB0808339B00EA
:100EB0009C5801233D009A460837002C22D031006F
:100EC0002140264218D05B464A469A582B00EA40F9
:100ED000203BDB171340524613420DD10722080076
:100EE0002A40920090400200EB087C483C339B0073
:100EF0001A502800019B984724090135002C01D085
:100F0000BD42DCD3202FCFD103B0F0BCBB46B246EC
:100F1000A946A046F0BD704B00200F229B46C60894
:100F20003300414608339B005B5801000830002B1A
:100F300000D1B2E017001F40BC461A420FD04C4609
:100F40005D460F002C59203FCC40FF17274001245D
:100F5000274204D16446614F3C36B600F4511E0965
:100F600000D19AE017003740324213D04C1CA446FF
:100F70005D464C462C5965460E00EC401F3EF61768
:100F800026400124264205D1EE08544C3C363F0150
:100F9000B60037511E0A00D17FE0170037403242B9
:100FA00013D08C1CA4465D464C462C5965460E0059
:100FB000EC401E3EF61726400124264205D1EE08DD
:100FC000464C3C363F02B60037511E0B65D0170029
:100FD000374032420DD0CC1CA4465D464C462C59BD
:100FE00065460E00EC401D3EF617264001242642C1
:100FF00057D01E0C51D014003440A44632420BD0BE
:101000004C46354E0F1D3659FE40B2460E00544632
:101010001C3EF60F26424BD01E0D3ED0140034402D
:10102000A44632420BD04C462B4E4F1D3659FE4043
:10103000B2460E0054461B3EF60F264240D01E0E0E
:101040002BD014003440A446324212D04C46224EDB
:101050008F1D3659FE40B2460E0054461A3EF60F1A
:10106000264206D16446FE083C3627061B4CB600D5
:1010700037511B0FCF1D002B0FD04C465D462E590C
:101080000124FE401939C9173140214205D1F90820
:10109000124E3C311B0789008B51202800D03EE7BF
:1010A00032E7EE080D4C3C363F03B6003751A0E75F
:1010B0006446FF083C37BE00084F2404F451ABE7F8
:1010C0006446FE083C362705044CB6003751B6E7A7
:1010D000D4210020304101409026002000400140F2
:1010E000094A83009A1810B514684022544080328F
:1010F0002240064CC000A44663441A60044B9C4640
:101100006044416010BDC04604C0014004D00140AD
:1011100000400140074B8000C3181B68C9009200C3
:101120000A435A400C231340034A94466044036028
:101130007047C04604C0014004D00140F8B54546A0
:101140009846D0231B06DE461C689B462B4B574611
:101150009A46A3004E469946E0B5534616004A46C5
:101160009B5807000D00002B34D04346002B3FD086
:1011700053464A4641469950D0231B061C68634299
:101180005C412F220720634293431D4A3840944616
:10119000FA081100800085403C311A4863448900F8
:1011A00092000D509B18002E0ED080229201944682
:1011B000634401210D201D6000F028F9F0BCBB46FE
:1011C000B246A946A046F8BDC022920194466344A7
:1011D0001D60F3E74346002BD1D0534641460D2016
:1011E00099500022084900F077F95B461C68C6E771
:1011F0000D20054900F06AFABAE7C046D421002064
:1012000030410140004001406D0E00108000002977
:1012100005D0064B9C464023604403607047044B56
:101220009C46402360440360F8E7C04604E0014068
:1012300004F001400123D02283401206936293619F
:10124000094A83009A1811684022514080320A40AE
:101250000649C0008C4663441A60054B9C46052332
:10126000604443607047C04604C0014004D0014060
:10127000004001408023DB051868000F7047C0461E
:101280000FB400B5084883B001F07CFD049B002B2F
:1012900007D005A91800019101F0ECFB034801F00B
:1012A00071FD012001F0FEFB8862001098620010C1
:1012B00070B5EFF3108C72B60D4D2B68002BFCD07F
:1012C000BFF35F8F0724CB08C618C05C01230C4016
:1012D000A3401C000440034207D118433070BFF301
:1012E0005F8F2C608CF3108870BD1000FFF7C8FF73
:1012F0002C0100D0F8B54746CE46884680B5EFF3BE
:10130000108C72B6214D2C68002CFCD0BFF35F8F7F
:101310009A422CD8D4080727055D061901241740E6
:10132000BC402C421FD007210127894609E0D40880
:10133000055D06194C4639001440A1400C002942B5
:1013400011D001329342F2D201204042BFF35F8FAD
:1013500000220E4B1A608CF3108800280FDBC0BCF3
:10136000B946B046F8BD254310003570EEE7BFF32F
:101370005F8F00232B608CF310880120404243468E
:10138000002BECD00898FFF77BFFC0462C0100D063
:10139000044A1078431CDBB2172B00D910231370BA
:1013A0007047C0469A0F002010B5064B064C82B01D
:1013B0000100009318221F232000FFF79BFF02B0BB
:1013C00010BDC0469C620010E42100200021044BA7
:1013D000044ABFF35F8F02C39342FAD17047C046FD
:1013E000000100D0800100D0054B064A1360064A78
:1013F000136053609360D3601361536193617047CE
:101400008080808000E400E004E400E01F231840B6
:101410001E3B8340002905D0C021044A4900535097
:1014200013607047802201498B50FAE700E100E029
:1014300001228240034B1B6813405A1E9341D8B2CD
:101440007047C04600E100E001238340014A136079
:101450007047C04600E200E0084B10309B688000F7
:10146000C358002B07D0064A00209B1A2F229A420D
:101470004041C0B270470020FCE7C04600ED00E0EC
:101480009C0F002070B50D00EFF3108672B60F4A66
:101490001368002BFCD0BFF35F8F0D4B10309B689F
:1014A00084001B590B4A934203D09D4201D001F0A6
:1014B000F3F8074B9B681D51BFF35F8FBFF35F8F3E
:1014C0000022024B1A6086F3108870BD240100D000
:1014D00000ED00E0CD010010F0B557464E46DE4667
:1014E0004546E0B585B0060000911700EFF3108B7C
:1014F00072B66A4A1368002BFCD0BFF35F8F0025D9
:10150000674B5D579A46002D00DAA9E06B00654CE9
:1015100001935B199B009846A146C1444B46524635
:101520009B7910361370604BB6009B6899590B1B62
:101530002F2B33D95D4B994200D0ACE0019B424642
:101540009C465B4B6544AD0063535A4B0232A21874
:10155000043B9B1A1B05584A5B0D651913436B80AE
:10156000564B0121AB80FF23AB71009BEF71AB6049
:101570004B460B4319004C4B9B689951BFF35F8F4F
:10158000BFF35F8F0022454B1A608BF3108805B0C4
:10159000F0BCBB46B246A946A046F0BD01200A00F9
:1015A0008243D3798C46BB4231D845461300444927
:1015B0001B1B5B415943090D3D4B63533D4B0235AA
:1015C0006519043B5B1B1B053B4D5B0D2B43AA467A
:1015D0004D466B800425AC465546E044131F4444F9
:1015E0001B1B1B055B0D1D434B46997100999D808C
:1015F00099604946DF71334B01431360BBE75800E4
:10160000C01880002018C179B9422FD902000623E2
:10161000D356002BF3DA02932B4B61460393131D31
:101620009A4604235B429C46E14450464B461B1AB3
:101630001B055B0D9C46204B9571984663464046C2
:1016400003439380019B5A199200039BA418A38023
:10165000029B1C4AA371009B2260E771A3608AE78A
:1016600001F01AF8002553465D574FE79088029322
:101670004005131D9A46031561469C464046D444D6
:10168000634604302018181AE0230005400D1B02A1
:1016900018430390C5E700F0FFFF4FE7240100D097
:1016A000EA2700209C0F002000ED00E0CD01001093
:1016B00000A1FFFFCC0F002000E0FFFF01BDFFFFF6
:1016C000AAAA00000148804701BD0000F0B5DE462F
:1016D00057464E464546E0B50C0083B0EFF3108800
:1016E00072B6634A1368002BFCD0BFF35F8F614B67
:1016F00061499A68030010339F00D55900938D42C9
:1017000043D0A54254D05D4EAA1B2F2A3DD85C4B36
:101710009C461B689A4601231A009946824053460C
:1017200013401F2201934B46024093409A46802269
:10173000634650469850BFF35F8FEFF305839B4697
:10174000002B37D0009B5B4501D000F0A5FF2A009D
:101750004B469A439068844208D177E04B005B186F
:101760009B00F3189868844236D01A00062151561F
:101770000029F3DA844255D0019B002B27D0C022E8
:1017800051463F4B5200995019603A4B9B68DD51CE
:10179000BFF35F8FBFF35F8F0022354B1A6088F372
:1017A000108803B0F0BCBB46B246A946A046F0BDC7
:1017B0000D00EAE72A004B469A4390688442D5D14F
:1017C00006201056130000280ADA0D0032E08023AC
:1017D00051462B4AD150D8E706201856002822DB64
:1017E00042001118890074188946A1689960E1794E
:1017F000D971062161569971002925DBA488F11A57
:10180000640524154C440919E0240905490D2402F6
:101810002143998013181B4A9B001178F318997182
:101820001070A9E713005946002914D1FF319171B6
:101830001549918013490A789A71144A9B1B5B41A0
:101840005A43120D0A7097E71149E2E70620105635
:1018500013000028C4DA0F4A0F49D21A083A50027E
:10186000400D014399800D4952080A43DA8083E70D
:10187000240100D000ED00E0CD0100109C0F0020FD
:1018800000E100E0EA27002001BDFFFFAAAA000056
:1018900001BD0000D60F002000F0FFFF00F8FFFFA1
:1018A00070B501240443EFF30581EFF3108C72B699
:1018B000214A1368002BFCD0BFF35F8F1F4B05003C
:1018C0001F4AED1A6D416A43120D1E4D8900AE6824
:1018D00052B27658A6421CD00621595691421CD0CD
:1018E00012215956914222D01E215956914220D0A0
:1018F0002A2159560324914210D0134B19781A709B
:101900008171BFF35F8F00220B4B1A608CF310883C
:1019100070BDAB680D4C5C50EFE700246100091905
:1019200089005B18FF21997109499980E5E7012435
:10193000F4E70224F2E7C046240100D09C0F002007
:10194000AAAA000000ED00E0EA270020CD01001067
:1019500001BDFFFF10B5084B084C82B00100009399
:10196000002205232000FFF7C5FC002801DB1F2310
:10197000181A02B010BDC046B8620010EF27002050
:10198000024B9C466144890001607047400000346E
:1019900070B5114C114DAC420FD2FF262368002BBD
:1019A0000CD0FFF7F5FC01002000FFF7E9FFA6804F
:1019B000BFF35F8F0834AC42F0D370BDFFF7E8FC93
:1019C00001002000FFF7DCFF2671BFF35F8F0834B2
:1019D000AC42E3D3F1E7C046C0150020C815002093
:1019E00010B50400FFF7D4FC01002000FFF7C8FF8A
:1019F000FF232371BFF35F8F10BDC04610B50400F5
:101A00000120FFF7D1FC034BC3189B002360BFF3F9
:101A10005F8F10BD40000034034B9C466144890039
:101A20000160BFF35F8F7047400000340A4B1968B4
:101A3000EFF3108072B60A68002AFCD0BFF35F8F04
:101A40001B68BFF35F8F00221A6080F3108840BFCD
:101A5000002000217047C046A4270020F0B5DE46D4
:101A600057464E464546E0B583B0EFF30582032363
:101A70001340B54A990052580091904601229A406D
:101A8000B24B93461A60B24B01932EE043469B88BB
:101A90001BB2002B00DB99E043469B79002B00D062
:101AA000DDE0434608241C5F002C00DA06E14346D3
:101AB0005A6963001B19DB00D3189D68DC686B1C36
:101AC00000D107E1A34B00999C4661449A6A0B69D7
:101AD000A81A9B1A984200D20D619E4800F0C2FBE2
:101AE0008C4200DDEAE000D126E15B469948436381
:101AF000434608229B5E9946002BC7DB424652694B
:101B00005B0092464B44DB009A4453469E68DF6874
:101B100000F0A8FB8F42B9DC00D100E1002F00DA11
:101B2000E1E05246534654691B69019A934200D141
:101B3000D4E0414652460820085E52880004210045
:101B40001043984704000D0023002B4300D1CAE046
:101B5000002D00DBE7E030003900001BA9415346AF
:101B60009860D96000229A5E002A8FDB43465D6947
:101B700053009C18E4002C19A768E4688C4200DD2F
:101B800084E702D1874200D980E746463281083691
:101B90000DE08C4200D1D3E01E000023F25E002A4B
:101BA0000ADB53009C18E4002C19A768E4689B1812
:101BB000DB00EB188C42ECDD53461A804B46338039
:101BC00043469B881BB2002B00DA65E743461A693F
:101BD000EFF3108172B61368002BFCD0BFF35F8F58
:101BE00043469E88012342465B42938036B2136986
:101BF000BFF35F8F00221A6081F31088002E00DA95
:101C00004AE743465D69083342469C467700BF1960
:101C1000FF00EF19BB68604698460823D15E9246E4
:101C2000FC68002907DA0EE0A2424FD0180000231A
:101C3000C15E002906DB4B005B18DB00EB18DA689D
:101C4000A242F1DD524606800023FE5E3980002E5E
:101C5000DCDA904643469B79002B00D121E7002334
:101C600042469371434646460821595E08364B1C4E
:101C700024D047468946556902E006004B1C18D01F
:101C80004B005B18DB00E8180A008C46E95E4388CD
:101C90001BB2002BF1DA01235B42DC178360C460C6
:101CA0004A4503D031803B8903803A81E1464B1C91
:101CB000E6D14C46B846002C00DBF8E640BF03B046
:101CC000F0BCBB46B246A946A046F0BD9A68424564
:101CD000ACD9B7E7631C00D0F4E6FEE62000236928
:101CE0009847002825D1534642461B881381126924
:101CF000EFF3108372B611680029FCD0BFF35F8F39
:101D00004246514652880A804246494651801269ED
:101D1000BFF35F8F0021116083F31088B6E686421F
:101D200000D8FBE6B2E60B4800F09CFA00196941C6
:101D300015E76568246807E7854200D8D5E6BDE762
:101D4000874200D828E737E7802600203C7005400E
:101D50005D1A00100040054070B52E4C2569002D1D
:101D600004D00A212C48FFF70BFE70BD2B4E032137
:101D7000300000F06DFAE660FFF70AFB284B032203
:101D80009C46D02322701B061B6801216370254BE3
:101D90006044A3600F238000206102206380636998
:101DA0004942A18019800231198647311D8358525A
:101DB00018315A5275325C399952183201319952A0
:101DC00018320131995218320131995208351832BE
:101DD0009D520231183299521832013199521832FB
:101DE0000131995218320131995218320131995208
:101DF0001832013199520C4B0C49DC6001303562CC
:101E0000FFF740FB01210320FFF700FB084B1D609B
:101E1000A7E7C046E40F0020A427002000400540AB
:101E200040000034FFFF1000802600205D1A0010E3
:101E30003860054000487047E40F0020F8B51F00E7
:101E400008AB1B7804001600002B08D100F012FA32
:101E500032003B00121A8B41002B00DA53E022695A
:101E6000EFF3108072B61368002BFCD0BFF35F8FC6
:101E70000223E15E63694A005218D2009B180029D0
:101E800037DB1A8862802269BFF35F8F00251560F7
:101E900080F31088069A9E60DF601A61079A5A6183
:101EA0005A8801325204520C101C002A1FD082B2F0
:101EB0005880080410432669EFF3108772B6326821
:101EC000002AFCD0BFF35F8FA2881A80A18023690B
:101ED000BFF35F8F00221A6087F310880B492378C5
:101EE0008C4601329A40E36863441A60F8BD0120D1
:101EF000DDE72369BFF35F8F00221A6080F310884B
:101F000001204042F2E70020F0E7C0463C200000FC
:101F100070B501000469EFF3108C72B620680028D8
:101F2000FCD0BFF35F8F02200D5E4C696800401942
:101F3000C0002418002D37DB208848800869BFF3D3
:101F40005F8F002606608CF31088E3606388049836
:101F5000013320615B0405985B0CA26060611A1C70
:101F6000002B1FD093B22804628018430A69EFF354
:101F7000108C72B61368002BFCD0BFF35F8F8B8878
:101F800023808D800B69BFF35F8F00221A608CF372
:101F900010880B7801329A40CB6808498C4663441C
:101FA0001A6070BD0122DDE70B69BFF35F8F00226D
:101FB0001A608CF3108801204042F2E73C200000B8
:101FC00010B543890A1493421ADD53009B184269E5
:101FD000DB00D3180469EFF3108C72B62268002A74
:101FE000FCD0BFF35F8F5A88090494B2090C8A426F
:101FF00008D00369BFF35F8F00221A608CF310884A
:10200000002010BD8022120214435C80012302696B
:102010008371BFF35F8F002111608CF31088044936
:1020200002788C469340C268012062441360E8E75E
:102030003C20000040787047F0B504000D000626F3
:102040007642F717C64636196F4100B582B08F4207
:1020500014D811D000F00EF932003B00121A8B4157
:10206000002B17DC002B47D02000290000F00CF9D2
:1020700002B080BCB846F0BD8642EBD900220023F6
:1020800016001F0000F0F6F832003B00121A8B41D8
:10209000002BE7DD00F0EEF832003B00121A8B4116
:1020A000002B0ADB00230193154B320000931548E7
:1020B0003B00FFF72DFF0028D6DB00239C46B046EF
:1020C000114A124E736A9F4204D8B16A8845CBD92F
:1020D0009F42C9D11168EFF3108072B60B68002BD4
:1020E000FCD0BFF35F8F1368BFF35F8F6146196049
:1020F00080F3108820BFE5E7002AB5D0CAE7C046C4
:102100002D1A0010E40F0020A427002000400540F5
:1021100070B504000D0000F0ADF88023001969418E
:102120001B06994202D3012002494042FFF784FF77
:1021300070BDC046FFFFFF7F70B5060000F09AF843
:10214000FA2204000D00002330000021920000F06C
:1021500013FC8023001969411B06994202D3012018
:1021600002494042FFF768FF70BDC046FFFFFF7F96
:10217000F0B5CE46474680B504000D0083B0EFF3BE
:1021800005878846002F3ED12E4EA1463378F06851
:1021900004339B00816A1B58601A5B1A98420ED365
:1021A00020BF294900204B6AAB4203D38A6A013021
:1021B000944231D803B0C0BCB946B046F0BD00F07F
:1021C00059F822002B00121A8B41002B2FDB1F4BDA
:1021D0002200009330002B000197FFF799FE011EAB
:1021E00025DD194B5A6AAA421BD220BF3000FFF7E7
:1021F000E7FE154A0020536A4345DBD3926A01305B
:102200009145D7D908E0104900204B6AAB42D1D3A1
:102210008A6A0130A242CDD25B1B5A1E9341D8B2CA
:10222000C8E79B6A9C42E1D9AA42DFD1DDE7064AB2
:102230000020536A4345BDD3926A01209145B9D924
:10224000EAE7C046E40F0020004005402D1A0010C8
:1022500010B5024A0248FFF72BF810BDD4620010F7
:10226000E82100200300416A0A00986A596A8A42FC
:10227000FAD17047034B596A0A00986A596A914229
:10228000FAD1704700400540064A536A9942FCD88B
:1022900007D1044B02E05A6A914202D19A6A824203
:1022A000F9D3704700400540F8B5DE464E46574624
:1022B0004546E0B58B4605000A991800160000F067
:1022C000C9FA0A9B6C001F02324B64199C46A40099
:1022D0006444636881469F4200D967602B1FDBB26C
:1022E0009846012B30D9C02380229B01E3181201AC
:1022F0001A60294BAD0059599A4600291BD1730128
:10230000E026226853401E40802342465B01E318CA
:102310001E60012A30D9802380229B01E31812011C
:102320001A6053464A4667605A51F0BCBB46B246F3
:10233000A946A046F8BD586900F08CFA0130430068
:102340001B18033BFDD2DAE75B46012BCBD1C02340
:1023500003229B01E3181A60023AA3681A42FCD0D8
:102360007301E0262268AD0053401E4080230A4AD4
:102370005B019246E3181E605A46216851400322D1
:102380000A401A6001225B469A40A3681A42FCD0B8
:10239000C1E7C04600800040EC210020F0B5464671
:1023A0004F46D646C0B51F00344B44009C46241807
:1023B000A4006444636888461600FF2B02D880237B
:1023C0005B006360031FDBB29A46012B30D9C02348
:1023D00080229B01E31812011A60294B850059598C
:1023E000994600291BD17301E026226853401E4004
:1023F000802352465B01E3181E60012A30D98023F6
:1024000080229B01E31812011A6080235B00636045
:102410004B465F51E0BCBA46B146A846F0BD58698C
:1024200000F018FA013043001B18033BFDD2DAE735
:102430004346012BCBD1C02303229B01E3181A6032
:10244000023AA3681A42FCD07301E0262268850094
:1024500053401E4080230A4A5B019146E3181E60E8
:1024600042462168514003220A401A600123424635
:102470009340A2681342FCD0C1E7C04600800040F0
:10248000EC210020014B8000C0587047EC21002057
:10249000F8B5040021481E0017000D0000F0DAF91D
:1024A0000100380000F0D6F9069B36041B031E43DA
:1024B0002368002B20DB1A4B1A49E3185A1E93415C
:1024C0008022920194465B421B0B174A1B03634414
:1024D0001360164A13601F000A689743FBD1144B20
:1024E0002560E2182123A06013602368002BFCDA2A
:1024F0000823E6601360F8BD3F2322681340AB4217
:10250000D9D1A3681B051B0D8342D4D1EE22E36809
:10251000D2021340B342CED1EDE7C046001BB70054
:102520000040FDBF08C0004000E0004000F0004057
:102530000430000010B580241C4BE4051C6000280A
:102540001AD001231A4C18431A4BDC611A4C444030
:102550001C62596298628021144BC90519601748A2
:1025600017490860E021C9041960002A07D18022B8
:10257000144B12061A6010BD0E4BD861EBE75301E5
:102580009B1A9B009A18802312015B049A4209D27D
:1025900013000D490B60074B5A608022094BD2058E
:1025A0001A60E8E7094B1A00F3E7C04600B005409F
:1025B000D3C007B0008005402D3FF84FFCFF01005D
:1025C0000820014000A0054058260020FFFFFF0022
:1025D0008023024A9B000B43D36270470080054072
:1025E000142310B50100188804331B88984710BDC8
:1025F000162310B50100188802331B88984710BDB8
:10260000F8B54746CE4680B50F1E19D0142399461B
:10261000043304000025012698464B46188843469B
:1026200021681B88984701C4431E984101354042E8
:102630000640AF42F1D13000C0BCB946B046F8BD4B
:102640000126F8E7142370B50400188804331B88AA
:102650000D000549984703000020002C01DB0130E4
:10266000A04029009847C04655420000AA23064AC8
:102670001B0113602F230549D360054B1960536874
:10268000002BFCDA7047C0460040024000B0FA0060
:10269000006002407047C04610B50148FEF7F0FDEB
:1026A000F862001070B5074D074EB54209D20024FC
:1026B000013E761BB60808CD984723000134B3428B
:1026C000F9D170BD1862001054620010054B064A23
:1026D00006491A60064A074B1A6010000B689843B7
:1026E000FBD1704700E00040BFCDFBFE08C00040BA
:1026F000FE7F3C0000F00040044BDB6C002B03D15C
:102700008022034BD2021A607047C046000011506D
:102710004C201150044A054B1A60054A1368DB012E
:102720008033FBD17047C046FFFFFF0100F000403F
:1027300008C000404022034B9A675A671A67DA665E
:102740007047C04600F0014010B5FEF73FFE10BDD7
:1027500070B5044D044CA968C022200000F07CF93B
:10276000AC6070BD00ED00E000000020002310B55B
:10277000294C82B0A367FFF779FF0122274B1A602B
:10278000636C012BFCD10322254B1A60224A936B08
:10279000012BFCD1013300930121224A224804334A
:1027A000FFF776FE052301210093204A2048FFF71A
:1027B0006FFE0022022104201E4BFFF7EFFD0022D6
:1027C000012105201C4BFFF7E9FD00220021072015
:1027D0001A4BFFF7E3FD002200210820174BFFF7FB
:1027E000DDFD8023DB000093002200210920134B34
:1027F000FFF75AFD0022104B00210620FFF7CEFD07
:102800000420FFF73FFE0E4900F024F801000020ED
:10281000FFF7DEFE02B010BD008000403CB000407B
:1028200030B00040002F685900800240008C86477D
:1028300000C00240001BB70040597307006CDC0267
:1028400040420F0001480421014B184700100020AE
:1028500001260010114A936F9B0813D2106651662F
:10286000002905D0FFE7FFE7FFE7516F106F7047C2
:1028700004B5002801D00020C04303F08DFC0021E6
:1028800004BDC046F0B5146E556E576F166FFFF756
:10289000E5FF1466556657671667F0BD000000D067
:1028A00010B50148FEF7ECFC04630010132370B56B
:1028B0001D78012D19D014DD1D48FFF799FE060083
:1028C0001C48FFF795FE1C4C80223100200000F0D0
:1028D000C3F8022D06D01948FFF782FE184B186086
:1028E00070BD154C174BA364F5E7174B124C2360D2
:1028F0006360A360E36023616361A361E3612362BA
:102900006362A362E36223636363A363E363236499
:102910006364A364E36423656365A365E365236679
:102920006366A366E36623676367A367E367D9E724
:102930005344000053460000501700204C33000061
:10294000A02600204D290010A128001007B56046E0
:1029500001880A0A0230DF2AFAD1C9B2820804D3F8
:10296000028840880004104300E00068014A50508B
:10297000039007BD5017002051434343C9188C46AC
:10298000110C83B24B4310B4040C614392B280B279
:10299000504362431C041B0C001910BC5941130422
:1029A000120CC018514161447047000010B5014835
:1029B000FEF766FC84620010132310B510481C78E3
:1029C000FFF716FE0100012C0AD003DD80220D481E
:1029D00000F042F80C48FFF703FE0C4B186010BDE6
:1029E000084C5422200000F037F8220008498032B9
:1029F0002368002B00D1216004349442F8D1E9E728
:102A000053460000A42600204C330000A0260020DE
:102A1000AD29001070B505000C0002F0B3FE6C4348
:102A2000002804D0034B04199C4200D870BD024812
:102A3000FEF726FC000004201C630010014804215E
:102A4000014B18471010002001260010014B1B6895
:102A50001847000010100020014B5B681847000069
:102A60001010002010B5002800D110BD00F03EF974
:102A7000FBE7C04610B5094A0300146884B0002C77
:102A800008D0012200910648524203A9A047012024
:102A900004B010BD00F076F90020F9E754260020BC
:102AA000652A001000BEFDE7094A030010680028EF
:102AB00005D00849C3188B4207D8136070470648F1
:102AC0000449C31810608B42F7D901204042F5E752
:102AD0004C22002000000420F027002010B5FFF752
:102AE000E1FFC04670B5FFF7DDFD074D074EB5426B
:102AF00009D20024013E761BB60808CD9847230072
:102B00000134B342F9D170BD546200105C62001010
:102B1000030010B5080011001B68984710BDC0469F
:102B2000F0B5C64600B5437D07000D001600002B2A
:102B300038D0002A2EDD00216A1E90466A5C037D93
:102B40004C1C00200A2A0CD0A64216D043461B5D1E
:102B500021000D3B5A4253416A5CDBB24C1C0A2AED
:102B6000F2D1002BF0D1884217DB022110483B68DC
:102B70009847A64207D02000E8E7864203DD311AD5
:102B80003B6828189847AD19013D2B780D3B5A42F8
:102B900053413B7580BCB846F0BD091A3B68281804
:102BA0009847E2E70368110028009847F2E7C0461B
:102BB00070660010F0B5DE4657464E464546E0B515
:102BC00085B017001C0006000D00FFF753FB002323
:102BD000314A12184B41802109068B4202D301224F
:102BE0002E4B52422E4908008A4603F0F5FA019016
:102BF0006B1C03D1300003F041F90500002C26D0F6
:102C0000284B9846284B1C68002C15D0002F21D14A
:102C1000264F02E02469002C0ED02368002BF9D047
:102C20003B68002B01D09C42F4D120002A003100E7
:102C3000C0472469002CF0D1019B002B28D128002B
:102C400005B0F0BCBB46B246A946A046F0BD184B45
:102C50009846D7E7154B994602ABDF1D0A239B46E2
:102C600002E02469002CE7D02368002BF9D04B4602
:102C70001B68002B01D0A342F3D12A0031002000B1
:102C8000C0475B460122390020003B70C047E8E79F
:102C9000504603F079FAD2E740420F00FFFFFF7F72
:102CA000C0150020212B00103C22002048220020CB
:102CB000112B00100A4A1368002B05D10CE01A00F2
:102CC0001B691032002B07D09842F8D1002902D19D
:102CD00003691360016170470029FCD01060FAE7B6
:102CE0003C22002010B500F08DFA10BDF0B5CE46A4
:102CF000474680B583B06B460600DD1D2870FFF7A0
:102D0000B9FA00231A4A12184B41802109068B4256
:102D100002D30122174B524217490800884603F09C
:102D20005BFA164B81461C68002C14D0144F02E04D
:102D30002469002C0FD02368002BF9D03B68002BAE
:102D400001D09C42F4D1200001222900FFF7E8FEC7
:102D50002469002CEFD14B46002B05D1300003B085
:102D6000C0BCB946B046F0BD404603F00DFAF5E7E9
:102D700040420F00FFFFFF7FC01500203C220020D3
:102D80004822002070B5040003F078F80123010008
:102D9000050001222000FFF70DFF084B1C68002CE6
:102DA00006D06368002B05D098472469002CF8D121
:102DB000280070BD2469002CF3D1F9E73C220020E3
:102DC0007047C0460022014B1A707047EB27002065
:102DD0004B790020FF2B0BD18B79002B08D1CB79BD
:102DE000012B05D1082A03D9024B8A7809301A70C1
:102DF0007047C046EB2700200120704710B501291D
:102E000001D0012010BD13495379107909781B02B4
:102E1000034300209942F5D15378012B08D0022BAF
:102E2000F0D1002064220021FFF784FB0120E9E7B4
:102E3000D37891781B021943DB0507D54A0A1000A5
:102E400001231A407E331940FFF7FCFB01204A0A98
:102E50004042F5E7EB270020004870473C67001030
:102E600070B5050014000120012909D15378002014
:102E7000012B05D1637912791B021343072B00D074
:102E800070BD21002800024A9F3301F049FAF7E79C
:102E900094660010012303700048704774660010A8
:102EA0004B780A781B0213438A7810B512041A4330
:102EB000CB781B0613439622D200934200D010BD5C
:102EC0000022012011004042FFF7BCFB024B1860BA
:102ED000024B19607047C046DC210020E021002031
:102EE00010B5024B1878FEF7AFFA10BDEC270020A2
:102EF000154B70B51A68002A22D0EFF3108172B614
:102F000010680028FCD0BFF35F8F00200F4A596083
:102F100010701B68BFF35F8F186081F31088002466
:102F200000250B4E3078FEF783FA002804D10024E8
:102F300000252900200070BD3078FEF785FAF8E7FB
:102F4000FA240025A400ECE778260020ED270020D5
:102F5000EC27002070B5040000200E0001F0F8FA04
:102F6000002836D0002001F00BFB002831D0FFF7FD
:102F700081F90023184A12184B41802109068B421F
:102F800016D2164D280003F027F9002821D0002082
:102F900001F0DEFA00280FD101200021404200F0AC
:102FA000F3FC03246442280003F0EEF8200070BD17
:102FB00001220B4B5242E4E7002001F0E1FA002825
:102FC000EAD021003200002001F0E6FA041EEAD126
:102FD000E7E703246442E9E740420F00C8270020E6
:102FE000FFFFFF7F10B5FFF745F900230E4A1218C7
:102FF0004B41802109068B4202D301220B4B5242E6
:103000000B4C200003F0E8F800280CD00120002130
:10301000404200F0B9FC002001F00AFB0028F5D185
:10302000200003F0B1F810BD40420F00FFFFFF7F0A
:10303000C8270020F8B5DE46574680B505000C00CD
:10304000FFF718F90023374A12184B41802109066F
:103050008B4202D30122344B5242344908008A4643
:1030600003F0BAF8002803D1C0BCBB46B246F8BD95
:10307000002001F06DFA00284AD00026002C43DD24
:103080002B4B9B4614E0A919002001F00DFB070013
:1030900001200021404200F077FC002001F0C8FA36
:1030A000FFF7E8F8224BF61918605960B4422BDD9F
:1030B000002001F019FBA71B0200B84200DD3A0016
:1030C000002AE0D101200021404200F05DFC0020F8
:1030D00001F0AEFA002001F03BFA002814D00020E5
:1030E00001F002FB0028E1D1FFF7C4F85B460F00B6
:1030F0001A685B68002184460E4812184B419F42B3
:1031000002D8D3D19445D1D9504603F03DF8ABE76E
:1031100000200021064B18605960504603F034F837
:10312000A2E7C04640420F00FFFFFF7FC8270020F4
:103130004817002020A1070030B52B4C85B0002196
:10314000200003F031F800281CD1284B1A68002A0F
:1031500016D0EFF3108172B610680028FCD0BFF3D0
:103160005F8F01242248596002781B68D2B2047034
:10317000BFF35F8F0020186081F31088002A17D0FA
:1031800005B030BD01200021404200F0FDFB0020D1
:1031900001F0F6F90500200002F0F6FF002DEFD057
:1031A000144B1B68002BEBD0134A10689847E7E7D5
:1031B000FEF740FE0400FFF75DF8FA2200239200BC
:1031C00012184B41802109068B4202D301220B4B7E
:1031D00052420121029100210191094920000091F0
:1031E000FEF72CFECCE7C046C8270020782600203A
:1031F000ED270020DC210020E0210020FFFFFF7FE1
:10320000F12E0010D02310B51B0684B01C68FEF709
:1032100011FEFEF70FFFA04202D0002004B010BD47
:10322000294B1B7801F06AFD28480368002B47D022
:103230000120FEF78FFBFF23254C26492070184004
:10324000FEF720F920780121FEF7E0F80520FEF7CF
:1032500003F9002826D1082200211F48FFF7F6FBBA
:10326000FEF7E8FD0400FFF705F8FA2200239200BC
:1032700012184B41802109068B4202D30122174BC1
:103280005242012102910021019115492000009133
:10329000FEF7D4FD0028C0DB12480121FFF70AFD2C
:1032A0000120BBE70120FEF77FF80B4B010018005F
:1032B000FEF7B2FB002205200B49FEF70DF9EBE704
:1032C000FEF78EFBB4E7C046F4680010C827002064
:1032D000EC2700203931001078260020FFFFFF7F07
:1032E000F12E001020100020E12E00100048704741
:1032F000D8670010004870478467001010B50400BC
:1033000017480378002B20D0002C06D1154B164807
:103310004380063BFF3B038010BD052C19D8134B9F
:10332000A400E05812490123013804E001330A8067
:103330000231142B0FD0C25C002AF7D1C022DBB2BD
:103340005B00920008481343E5E7112100F01AF8EA
:10335000DAE70020E0E7CA2303489B00DBE7C0462A
:10336000D027002009040000142200206C67001000
:103370001622002010B5024800F0D8F810BDC04653
:103380009826002030B54B1E012900D1A7E0664ADF
:1033900011780D092C0030349F2900D9A2E0047067
:1033A000012B00D1BEE00F21147821400C003034F5
:1033B000092900D998E04470022B00D1B2E054787A
:1033C0002509290030319F2C00D990E08170032B12
:1033D00000D1A7E00F2121400C003034092900D989
:1033E00087E0C470042B00D19CE094782509290063
:1033F00030319F2C00D97FE00171052B00D191E085
:103400000F2121400C003034092900D976E04471A5
:10341000062B00D186E0D4782509290030319F2C75
:1034200000D96EE08171072B00D17BE00F21214094
:103430000C003034092966D8C471082B00D171E022
:1034400014792509290030319F2C5FD80172092B8E
:1034500068D00F2121400C003034092958D844721B
:103460000A2B5FD054792509290030319F2C52D87E
:1034700081720B2B56D00F2121400C0030340929CA
:103480004BD8C4720C2B4DD09479250929003031CA
:103490009F2C00D9073101730D2B43D00F21214000
:1034A0000C003034092901D937310C0044730E2B3C
:1034B00038D0D1790C09220030329F2900D9073247
:1034C00082730F2B2ED00F220A4011003731092AA8
:1034D00001D830321100C173102B23D010300023DB
:1034E000037030BD07345AE737310C0063E707310A
:1034F0006CE737310C0074E707317DE737310C009A
:1035000085E707318EE737310C0095E707319DE7F6
:1035100037310C00A3E70731AAE737310C00C4723A
:103520000C2BB1D1C018DAE79826002010B588B06E
:1035300004000D2200216846FFF788FA0D220021C1
:1035400004A8FFF783FA4B236A466846137004A960
:103550000D2202F011FE1521082220006944FFF718
:103560007BFA08B010BDC046F8B500F03BF90C235B
:10357000184DFF22AB6705201749FDF7ADFF174C2B
:10358000402200212000FFF761FA40270023012696
:103590002121134A66702783A260136063545F3150
:1035A0006184453963540F4A0F496360E26027879D
:1035B000A1620B606362E26202F0D6FD80239B058C
:1035C0002E64EB649023094AEA508022084B520291
:1035D000DA64F8BD00001150A10400205022002040
:1035E00084001050000110508000105010D00100D5
:1035F0000020115010B501210520FDF707FF10BD77
:1036000010B500220021024800F00CF910BDC046A0
:1036100070220020044B1970002904D080219023CF
:10362000024A8902D1507047E7270020002011503C
:103630000B785B0602D14B78052B00D070478A7857
:10364000014B1A60FAE7C04600001150F0B5C646BB
:1036500000B5CC7888780A794B797F21A40701409E
:103660001B02C50913434F00A20F1400324E7A19F2
:103670005201B218907001206840507000205B0524
:103680005B0DD0701383D4768046CA00012D33D0F1
:103690002A488446880162448446B4446046826075
:1036A00040461060002933D0254AC9009046624642
:1036B000414451603F223F339343022C00D15B00D1
:1036C00020487A1901685201B218D1601E4ACB18FD
:1036D000036051405A40802388465B019A4228D8B3
:1036E0004346A4061C4380237F197F01F6197268A4
:1036F0001B062343136011E014488446880162448A
:103700008446B4446046826240461060002909D174
:1037100000236D0175196B600D4BEB60012080BCBF
:10372000B846F0BD084AC90090466246414451621D
:10373000C0E7FEF7B1FFD3E750220020840010500D
:10374000040010505C260020000010508000105033
:103750000001105010B502F007FD10BD10B57F201C
:103760000C0020404000E409110000191A00034B2E
:103770004001C01800F056F8012010BD5022002072
:103780007F23180010B50840CA090B4203D107492E
:103790007D3B9B1A8B66400080188022044B4001C1
:1037A0000021C018120102F02FFD10BD00201150A1
:1037B000502200207F22130010B50B400A4200D196
:1037C00010BDC9095B005B1804485B01C0180023E9
:1037D00000220349C37002F017FDF1E750220020D8
:1037E000FFF7FFFF80220A4B520410B51A60094B05
:1037F00009491A6010000B689843FBD18022002110
:1038000052010648FFF722F90922054B5A6710BDFD
:1038100000E0004000F0004008C0004000001050F0
:1038200000001150002310B5C382013382828376D9
:103830000161040002F0C0FC002804D08021902324
:10384000074A8902D150200002F0D6FC002802D09D
:103850000123237710BD200002F0C6FCFAE7C04622
:10386000002011507047C0467047C0460020704786
:10387000002070477047C0467047C0467047C0463A
:103880007047C046024B5878431E9841C0B27047FB
:10389000EC1C0020024B18784007C00F7047C04650
:1038A000EC1C0020F8B54746CE4680B52B4F0600ED
:1038B0003B78FF2B04D00120C0BCB946B046F8BD10
:1038C000002154222648FFF7C1F80022254C264B40
:1038D00020001A70FEF784F8244B1C60244C200052
:1038E000143CFEF78BF8200001F0F2FD214B224D35
:1038F0001C60224B002B27D02800FFF7CBFA204B6F
:103900002A7818601F49002489461D4900238846EB
:1039100010E043461B6862019B18002B12D05B68C5
:10392000002B0FD098472A780134E4B2511C2300B1
:10393000A1420BDBA242ECD89B1A5B014B445B68B3
:10394000002BEFD10020B7E72A78DBE730003E708C
:10395000FFF70AFE3000FFF74DFEACE754100020E1
:10396000EC1C0020A41C0020E8270020401D0020A3
:103970004C100020441D0020E6270020952E00104A
:10398000C019002094680010F0B5DE4657464E4638
:103990004546E0B5C84B91B002931B78FF2B00D190
:1039A0003EE1C64BC64E9B465F46C64B0DAC0193EF
:1039B000C54B009335686A69EFF3108172B61368DE
:1039C000002BFCD0BFF35F8FA9612800210001F01C
:1039D000ADFB6A69AB69BFF35F8F0021116083F3B0
:1039E0001088002800D11BE16378082BE2D89B00E7
:1039F000FB589F466368002BDCD0A0689847D9E746
:103A00007F222179AF4D0A405300EB189846C80930
:103A1000804440460123303005799D430571057986
:103A200003339D430571002A00D100E14346A74AB4
:103A30001B7D1278934200D3EFE0A54A5B01156825
:103A4000ED18002D00D1EBE0A36862792078AD6914
:103A5000A847AFE79F4A1378002B00D1E0E0137826
:103A6000013BDBB213701378002BA3D10122954DDB
:103A700001212B78042013432B703423EA5C8A4302
:103A8000EA54EA5C8243EA540133EA5C8A43EA542A
:103A9000EA5C8243EA54237800209B4600F0A0FCB5
:103AA000602223791A40602A00D1EFE0402A00D139
:103AB000F5E0DB06DB0E012B00D113E1022B00D178
:103AC000C7E0002B00D0E1E0202A00D11CE2002A50
:103AD00000D0DBE06379092B00D9D7E07E4A9B0058
:103AE000D3589F46774D2B78DB0700D462E7FFF76A
:103AF000C7FE5FE7019BDB78DB0700D45AE760680D
:103B0000FFF7B2FE56E76F4D2B78DB0700D451E785
:103B100028780007C00FFFF7B1FE4BE723786A490A
:103B200099468B46694B6A4998468A4639001A7805
:103B300047460023B04600254E46894610E05346CE
:103B40001B686A019B18002B00D176E0DB6830000F
:103B500098473A780135EDB2511C2B008D4244DC78
:103B60009542ECD39B1A5B015B44EFE723785849FD
:103B70009946564B8A4698463100BB464E461A78BF
:103B800000250023474689460FE053461B686A011B
:103B90009B18002B55D0DB68300098473A780135E8
:103BA000EDB2511C2B008D4207DC9542EDD39B1AE0
:103BB000009A5B0194466344EDE7019D5422002185
:103BC0002800FEF743FF1022FF214448FEF73EFF86
:103BD00028002022FF2114304E465F46FEF736FFB4
:103BE00000F0F4FBFFF748FEE4E6364D54220021D6
:103BF0002800FEF72BFF1022FF21281DFEF726FFCD
:103C000028002022FF21143046464F46FEF71EFFB3
:103C100000F0DCFB2379AB70CCE6501C984213DA41
:103C200011B0F0BCBB46B246A946A046F0BDA368A1
:103C30006279207800F0E8FBBCE646464F46214D0D
:103C4000E6E74E465F46CBE71F4D9B1A5B015D19C9
:103C5000FAE67023217A0B4218D1C80982460F3345
:103C60000B405B0098461948EB1853441B7D0078C5
:103C70009946834266D216485B01006881469944A2
:103C8000002A00D15FE14B46002B68D1207800214B
:103C9000FFF776FD80212078FFF772FD8AE6104855
:103CA00000F09EFB012158460EAAFFF7D9F8002824
:103CB00000D07FE6EAE7C04654100020EC67001011
:103CC000441D0020EC1C002094680010E627002012
:103CD000C0190020E827002010680010F01C002008
:103CE000612E0010237A0F2BD0D8CF4AEB181B7906
:103CF0001578AB423ED3691C9942C7DB5D1BCB4BA9
:103D00006D01ED18686900F06BFB012158466B6985
:103D10000EAA9847002800D04CE6602215002379AF
:103D20001D401A42B2D163790A3B012BAED800F094
:103D300057FB63790A2B00D199E158460EA900F090
:103D4000D9FA37E6431C4B4500DAF7E04B461B1A1D
:103D50005B019946B5488144002A00D1F3E04B4607
:103D6000586900F03DFB4B46012158465B690EAA9D
:103D700098479CE7AE4A5B011568ED18002DC1D14C
:103D800084E7A37999466B789945D6D06B78002B58
:103D900000D033E14B466B70002B00D12BE148463D
:103DA0000138C0B2FFF7A6FA002800D17EE14378BF
:103DB0000793022B00D079E10122C179B1468B1122
:103DC000491113400A40302112015B0113432A7844
:103DD000A8468A4313432B7009239A4682445646C9
:103DE000BA46C37882781B021343C31805938E4BDF
:103DF00004938E4B08938E4B09938E4B0A93059B2D
:103E0000B34200D855E1737801220B2B03D13378EC
:103E1000F278F6187378042B00D044E1059B002754
:103E20009B1B9BB20693049B0B921D78002303936C
:103E30001BE0099A7B011568ED18002D00D132E1D5
:103E4000310058462B69069A98478446082803D9BA
:103E5000069A824200D313E1049B01371D78FFB21A
:103E60006B1C03979F4200DD1DE1BD42E1D8039B1F
:103E70005D1B089B6D019C466544E1E76B780CAACD
:103E800002321370584601230EA900F049FA91E559
:103E9000E3881A0AD8B20F2A00D9F7E666499300D8
:103EA000CB589F460EA800F0A1FA5846A179FFF71B
:103EB000A7FB02222B7813432B707BE5E388012BB1
:103EC00000D0E3E608222B78584693430EA92B70C6
:103ED00000F010FA6EE5022029780CAB9A1C8B06D4
:103EE0008908DB0F01400B431380584602230EA9BB
:103EF00000F016FA5EE5E388012B00D0C6E6082242
:103F00002B7813432B7018E7237A0F2B00D9BDE6CB
:103F1000EB181D79444B1B789D4228D2444B6D0110
:103F20001B685D19002D00D1B0E6686900F058FAF1
:103F3000012158466B690EAA9847B8E6002A00D0BE
:103F4000A4E600239946627902201300039283437A
:103F5000012B15D0002A00D098E62B00434453448F
:103F600030331B790CAA9B07DB0F0232BCE75A1CCB
:103F7000AA4200DA8AE6ED1A2C4B6D01ED18D4E75F
:103F8000E388002B12D1029B1878039B012B23D0CE
:103F9000FFF7F6FB43460221EB18534430331A79FE
:103FA0000A4301211A711A790A431A714B46002BF0
:103FB00000D1FFE4586900F013FA4B4601215B6918
:103FC0000EAA58469847002000F00AFA3523EB5C09
:103FD000DB0700D5EEE4B0E6FFF7ECFB4346022139
:103FE000EB18534430331A798A431A711A790399BA
:103FF0008A431A71DAE7FFF73FFC9EE60021584634
:10400000FFF708FB5846FFF7A5FBAB78074903937A
:104010000491054B064998461A780591002329001A
:104020001D008A461BE0C046E62700209468001069
:10403000C0190020001D002038680010059B6A018F
:104040001B689B18002B4DD0DB68584698474346A9
:104050001A780135EDB2511C2B008D422EDC9542B1
:10406000ECD39B1A049A5B0194466344ECE70CABD7
:104070009A1C584601230EA9157000F051F999E4D5
:104080000B9A012A4FD0002A3CD00023B07804E0DC
:104090000133DBB20F71934234D2C118C9B241442B
:1040A0000D79FF2DF4D04E464546574600236B70E0
:1040B000ECE54E465746FFF7DDFB3EE655465422FB
:1040C00000212800FEF7C2FC1022FF21281DFEF768
:1040D000BDFC28002022FF211430FEF7B7FC039B13
:1040E000AB7057E65546FAE7FEF7B6FE021E00D162
:1040F000CCE5D37891781B020B4358460EA900F00B
:104100000FF9D4E565463B002A0031000A9800F01B
:104110007DFEAC46049B039A1B78664401339342B0
:1041200000DB6CE6BFE7174B29699942ADD1079ACE
:10413000ABE7FFF79BFB021E00D1A7E558461378BB
:104140000EA900F0EDF8B2E52189FFF7D7F8021EBD
:10415000F4D19BE5022A0FD0FFF78AFB021EC8D1DB
:1041600094E5FFF7C3F8021E00D18FE512235846ED
:104170000EA900F0D5F89AE5FFF7BCF8021EB8D1F9
:1041800084E5C046FD470010F8B557464E46DE466A
:1041900045460C00E0B516001F00002A3CD01F4B1E
:1041A00000259A46702399461D4B9B4617E05B46B7
:1041B0002000997800F0ECFD00281FD02100404637
:1041C000FFF744FA002819D0A378DA09012A1CD095
:1041D0000A9A013513702378E418B5421CDA637823
:1041E000052B0BD1E3789B079B0FBB4206D15346AF
:1041F0004A461B789846A3781A42D8D00020F0BCD3
:10420000BB46B246A946A046F8BD0B9A01351370CD
:104210002378E418B542E2DB0120F0E754100020D7
:10422000EC1C0020702270B5094B0C001D788B78B7
:104230001A4201D0002070BD064B2000997800F092
:10424000A7FD0028F6D021002800FFF7FFF9F2E7CC
:1042500054100020EC1C00200B007F2010B51840EB
:10426000DB0934334000044AC018044B1168C018FD
:1042700000F04AFD10BDC046401D0020EC1C00208F
:104280000B007F2010B51840DB0934334000044A8E
:10429000C018044B1168C01800F05EFD10BDC04688
:1042A000401D0020EC1C002070B57F240F480C40FE
:1042B00064000419CD09641930342079C00701D590
:1042C000002070BD01262579094835430078257105
:1042D000FFF744FA0028F4D1012223799343237194
:1042E0002379033293432371EAE7C046EC1C002094
:1042F0005410002070B5094C0600082220000D0063
:10430000FEF7AAFB00238021E360A3602B78300036
:10431000994300220023FFF7C7FF70BD901C0020C7
:10432000F8B5CE4647469046264E80B581460822CF
:1043300030000D001F00FEF78FFB4346B3600023E3
:10434000F381EC79AB7924021C43231CBC4200D9D5
:104350003B1C9FB2B381002C0ED0002F18D04346D7
:10436000002B2CD03B1C402F1BD89FB233787F2BC7
:104370001CD80021144A0FE080212B780022994399
:1043800048460023FFF790FFC0BCB946B046F8BDD1
:104390007F230022317899433B004846FFF784FF92
:1043A000F2E740239FB233787F2BE2D9064C3A00E4
:1043B00041462000FEF750FB80212200ECE7002060
:1043C000E2E7C046901C0020AC1C002010B514226F
:1043D00000210248FEF73AFB10BDC046901C0020A9
:1043E000014B18617047C046901C002010B5054C69
:1043F000010008222000FEF72FFB0023A360E360EA
:1044000010BDC046901C002070B5384C1D002378AC
:104410000600DA09C9098A4210D00020002D00D018
:1044200070BD21003000FFF703F92369002B03D092
:1044300022000321300098470120F1E7A0687F2B7C
:1044400005D8002834D02A002949FEF705FBE28967
:10445000A1685219E38892B24919E281A16093429E
:1044600014D03F2D12D9A389981A051C80B2402878
:104470002AD82078ADB27F2828D800219A4232D09D
:104480001B4A2B003000FFF70FFFC9E72369002B01
:1044900005D0220002213000984700280AD0802150
:1044A00023780022994330000023FFF7FDFEB7E791
:1044B0000020B5E700213000FFF762F930008021CD
:1044C000FFF75EF90120ABE74025D2E79A4207D01B
:1044D000074C2A002000FEF7BFFA80212200D0E717
:1044E00080210022CDE70022CBE7C046901C0020AF
:1044F000AC1C002070B50400FFF7C4F9002800D1FF
:1045000070BDFFF7C7F90028FAD1E378002BF7D088
:1045100025001035280000F0F3FD3F28F0D90020D9
:10452000E178FFF799FE0028EAD0280000F0E8FDC6
:104530003F2808D992239B00E218E178402300200D
:10454000FFF7B2FEDCE7E1780020FFF799FED7E73E
:1045500010B50400FFF796F9002801D1002010BD26
:10456000FFF798F90028F9D1B22292006243034B79
:1045700001309B181B791840F1E7C046C81900208C
:10458000B2239B00434310B50248181800F09AFD6F
:1045900010BDC046D8190020F0B5B226B60046437B
:1045A0003500C6468023204F1035040000B57D1924
:1045B0005B029A4200D31D4A280092B200F004FE2A
:1045C0008046FFF75FF9002803D1404680BCB8461B
:1045D000F0BDFFF75FF90028F7D1B2239B005C43E1
:1045E0003C19E378002BF0D0280000F089FD3F282B
:1045F000EBD90020E178FFF72FFE0028E5D0280056
:1046000000F07EFD3F280AD992239B009C46664419
:104610004023E178BA190020FFF746FED5E7E1789C
:104620000020FFF72DFED0E7C8190020FFFF000093
:10463000F8B50400FFF726F9002801D10020F8BDE5
:10464000FFF728F90028F9D1B2239B005C4325002D
:10465000144E2435AD19280000F034FD0028EDD0AB
:1046600037190020B978FFF7F7FD0028E6D0A2231C
:104670009B009C466444A41921002800402200F0BD
:10468000A3FDB978051E08D0030022000020FFF723
:104690000BFE0028D2D02800D1E70020FFF7F0FD64
:1046A000CCE7C046C819002070B5B224A40044432A
:1046B0000B4B0500E41880235B029A4200D3094AA1
:1046C000200092B200F048FE0600200000F0FAFC44
:1046D0003F2801D8300070BD2800FFF7A9FFF9E797
:1046E000EC190020FFFF0000B2239B00434310B5EC
:1046F0000248181800F004FD10BDC046EC19002057
:10470000B222F0B500251B4C83B00021200092009E
:10471000FEF79CF9184B80261D70FF236371E1237F
:104720005B02A3602100082320007600A3733200FF
:1047300038310095073B103000F08EFC210001233A
:10474000200039313200FF310093243000F084FC26
:104750008E239B00E7183800FDF742F990239B0059
:10476000E6183000FDF73CF9E561276226636563D2
:1047700003B0F0BDC8190020C41900200B4B196B01
:1047800000290AD01A6A002A0DD000221A621A6380
:10479000DA6100225A63012070471A6A002AFAD0AF
:1047A000D9611962F7E71A63F3E7C046C819002018
:1047B00070B50F4C052200212000FEF747F90D4D82
:1047C0002B78DA0707D50C4C9B070CD5012120006C
:1047D00000F09EFE70BD2000103000F079FE2B78B6
:1047E000054C9B07F2D4200000F072FEEEE7C046B5
:1047F000C8190020C4190020EC190020F0B5C646E5
:1048000000B54B79060082B0022B02D18B79022BC6
:1048100005D00025280002B080BCB846F0BD214F6D
:10482000BB78002BF5D18B7809253B700C780C19DF
:104830006378242B0BD1082A02D821E0AA421FD387
:104840002378E4185D196378ADB2242BF6D0052BDC
:104850001AD0042B14D163790A2B11D123782100AB
:104860009846114B0222019301330093300002233A
:104870004144FFF789FC0028CBD00E354544ADB24A
:104880003800FFF737FEC5E721003000FFF7CAFC0C
:104890000028BED0A3787B7023785D19E418637874
:1048A000ADB2D6E7C8190020CA190020F8B56023B8
:1048B00014001278050013400020202B12D12F4A3B
:1048C0006379277916781B023B439E420AD16378AD
:1048D000222B1AD007D8202B3CD0212B02D1012922
:1048E00030D00120F8BD232BFCD1012940D0032971
:1048F000F7D1234B002BF4D0E178A37809020020F4
:10490000194300E000BF0120ECE7012930D0032962
:10491000E7D101252E00A378E478023924021C4354
:104920001471264024321000714000F0F1FD154B47
:10493000002BD6D06208002031002A4000E000BFE2
:104940000120CFE70723210028000F4AFFF7E8FCEA
:104950000120C7E70129F5D00329C2D10B4B002B59
:10496000BFD0083200201100FEF79AFA0120B9E703
:1049700021002800FFF7BEFC0120B3E7C819002082
:104980000000000000000000D0190020A12E00103F
:10499000F0B54F464646D646374DC0B5EA781F00BB
:1049A00080460C00AB788A423BD08B4210D000206E
:1049B000E0BCBA46B146A846F0BD304B002B04D04F
:1049C0002F4800F095FB002853D02800FFF792FDF8
:1049D000AB78A34201D00120EAE72A4B002B02D09A
:1049E000002000E000BF0020FFF722FE0028F2D1E7
:1049F000254C200000F066FB0028ECD1002FEAD007
:104A0000BF06E8D1243C4046A178FFF725FC0028EA
:104A1000E1D0002300224046A178FFF745FC0120A9
:104A2000C6E792239B00EE1810239A46AA44310051
:104A30005046BAB200F090FC144B002BBDD06B79FD
:104A4000FF2BBAD0002FB8D0F219914603E00136FF
:104A5000B145B2D06B7932789A42F8D1504600F025
:104A600047FB0028F3D15346103B597900E000BFC3
:104A7000EDE700E000BFA8E7C81900200000000033
:104A8000D819002000000000EC19002000000000F0
:104A9000B32270B5144C84B0002120009200FDF7C1
:104AA000D5FF231D02932300200080254026CD330F
:104AB0006D00FF33A93000930022002300210396EC
:104AC0000195FF3000F0BCF9230020004433A834E6
:104AD0000293012200230021039601950094843063
:104AE00000F0AEF904B070BD081E002010B5054CF2
:104AF000200000F0DBF920002538FF3800F0D6F95F
:104B0000012010BDB01F002010B5064C002320006E
:104B1000B130FF30237000F0DBFC20008C3000F05F
:104B2000D7FC10BD081E0020F0B557464546DE46AE
:104B30004E46E0B54B7980460F0083B0FF2B28D15D
:104B4000454B0C789946AA234946FF33CB5C002B92
:104B50001FD18533CE5C002E1BD1BB783C190B7066
:104B60003B79002B12D0D8235B004B449A468C2310
:104B70004B449B46A5186378052B05D111E023789B
:104B8000E4186378052B0CD0A542F8D8E01B80B25E
:104B900000E0002003B0F0BCBB46B246A946A046E8
:104BA000F0BDA542F2D921004046FFF73BFB0028AB
:104BB000EFD0A3780136F6B2DB09012B29D050469D
:104BC00000F086FCAA234946A278FF33CA546379D1
:104BD00022791B021343214A5B0594465B0DD421C5
:104BE00063445A4253414A4602204900525C5B00EA
:104BF000824313434A46535451464046083900F015
:104C0000BDF90028C5D02378E4183B79B342B2D867
:104C1000BCE7584600F05CFC5A468523A1788C3AE4
:104C2000D154637921791B020B430C495B058C46F7
:104C30005B0D634459424B4184215B000193022385
:104C4000505C9843019B0343535459460020083954
:104C500000F062F9D7E7C046081E002000FEFFFF03
:104C6000F8B5AA2506001F48FF35455D1F008D4297
:104C700015D08523C35C00208B420FD11A4B002B2B
:104C800004D039040020090C00E000BF174C3000AC
:104C9000210000F041F9002814D00120F8BDDA23EA
:104CA0005B00C35A002B14D1114B002B04D0002001
:104CB0001049BAB200E000BF30000F4900F05EF9C1
:104CC0000120EBE73A002100300000F0F1F801206C
:104CD000E4E7D6235B00C158B130BAB2FF3000F030
:104CE0003BFBE1E7081E0020000000008C1E0020B6
:104CF000000000000C1E0020B01F002010B5002096
:104D0000FEF7D0FD10BDC046037870B5DB07040088
:104D10000E00DD0F002B17D103785B0701D52800AB
:104D200070BD01213000494201F04EFA2378DB07C3
:104D3000DD0F002B0AD123785B0708D404222378E7
:104D400001251343237002E00025E8E70025300029
:104D500001F01AFAE3E7C04670B50C000121060025
:104D60004942200001F030FA33785B07DD0F002B59
:104D700004DB200001F008FA280070BD3378DB075F
:104D800004D40422337893433370F2E70025F0E72C
:104D9000437902791B021343C2785B0592075B0DCE
:104DA000920F022A1DD0032A0CD00020012A08D11C
:104DB00002394A425141124A944661449942404163
:104DC000C0B2704702394A1E91410E4A4942114011
:104DD0008022D20094460020614499424041C0B2F2
:104DE000EFE7022905D0002040229A424041C0B29C
:104DF000E7E7054A981843425841C0B2E1E7C04688
:104E0000FF03000040FCFFFF00FEFFFF8A1870B5A3
:104E1000914207D27F264C78052C04D00C780919D2
:104E20008A42F8D870BD34008D782C406400041993
:104E3000ED0963550C7809198A42ECD8F2E7C046AF
:104E4000F0B5C64600B582B0150008AA40CA0400F5
:104E500017880BAA1288012090460A002178024088
:104E600081432000114321703A0000933100012357
:104E7000083000F0F1F8002E01D0002F08D10A9B75
:104E8000012063604346638002B080BCB846F0BD39
:104E900026001C363000FCF7A3FD0023002D01D0B6
:104EA000330000266361A661E9E7C0460120704730
:104EB000F8B502240B7807001C4063425C41144B98
:104EC00064421C40134B08009C4608300D0016003D
:104ED000644400F0F7F8002807D1002E05D03442D2
:104EE00003D101242B781C4201D00020F8BD3800EA
:104EF0006978FFF7B1F90028F7D02B781C42F4D17C
:104F00000023002238006978FFF7CEF9EEE7C046AB
:104F100040FEFFFFFF010000F8B50D000835060058
:104F200028000C0000F0CEF8002803D001272378D9
:104F30001F4201D00020F8BD30006178FFF78CF9E6
:104F40000028F7D028006288616800F03DF92378D6
:104F5000051E0BD01F42EDD103006268300061785E
:104F6000FFF7A2F90028E5D02800E4E71F42E1D1CD
:104F700030006178FFF784F9DCE7C046F8B5CE462B
:104F8000474680B58A8905000C000B78002A07D1B6
:104F900001261E423FD00020C0BCB946B046F8BD35
:104FA0009B0734D5FE2380261B029946B6002700B6
:104FB0000837380000F0A4F88642ECD801222378A4
:104FC00090461A42E7D128006178FFF745F900289A
:104FD000E1D0380000F094F8864231D84146237879
:104FE00062881942D7D14B461840061C904200D91E
:104FF000161CB6B200226178002E00D06268330021
:105000002800FFF751F90028C5D03000C4E7114B44
:1050100040269946CBE74978FFF71EF90028BAD019
:10502000227863881642B6D100226178002B00D026
:1050300062682800FFF738F90028ACD06088ABE739
:10504000424623781A42A6D128006178FFF718F962
:10505000A1E7C046C0FF0000F0B5C64600B5040099
:1050600006A805788020884617001E0000028242AC
:1050700026D8E068002803D00121494201F0A4F8B5
:105080002069002803D00121494201F09DF84346E0
:10509000236073045B0CED031D430023E068638110
:1050A000A780E5802381002801D001F06DF82069F8
:1050B000002801D001F068F8012080BCB846F0BD9E
:1050C0000020FAE710B5048941898288A3B288B22A
:1050D0008C4207D31B1A9BB2101C9A4200D9181C91
:1050E00080B210BD5100091A5B189BB2F4E7C046AC
:1050F00003894089181A43425841C0B27047C046DC
:1051000010B5048941898288A3B288B28C4207D342
:105110001B1A9BB200209A4201D9D21A90B210BD3C
:105120005100091A5B189BB2F4E7C04670B5040041
:1051300000690E00002803D00121494201F044F823
:1051400025896089A288A9B283B285422CD3CD1A61
:10515000ADB2002D2ED0AA4208D2914230D3891A86
:105160008BB263819A4203D89B1A9BB29A42FBD9B5
:10517000E28821685204520C53433000C918FDF7ED
:105180006BFC63890125591C89B2A2888B4213D913
:1051900000215200891A89B220696181002801D05A
:1051A00000F0F2FF280070BD5500ED1A4D19ADB2A8
:1051B000002DD0D1618989B252009142ECDBE9E740
:1051C00089188BB26381CDE7F0B546464F46D64687
:1051D000C0B50600006989469046002803D0012129
:1051E000494200F0F1FF31897289B5888BB294B2DF
:1051F000914254D31F1BBFB2002F4AD0BD4205D2EB
:10520000AB4251D25B199CB22F0074814346B84522
:105210003DD89FB2A54203D8641BA4B2A542FBD9D6
:10522000F28831685204520C904662432B1B9BB2A9
:10523000891842469F4225D953439BB21A004846DB
:105240009A46FDF709FC434648467D1B64195C43BA
:1052500031685044A2B2FDF7FFFB7189B588CB19C4
:105260009BB26A00994216D99B1A9BB2306973812E
:10527000002801D000F088FF3800E0BCBA46B146F3
:10528000A846F0BD48467A43FDF7E6FBE5E73B1C40
:10529000BFE773899BB26A009342E7DBE4E76F00E4
:1052A0003F1BDF19BFB2A7E75B1B9CB2ACE7C04650
:1052B000F8B50400C0680E00002803D0012149425F
:1052C00000F082FF258920896189A288ADB283B26E
:1052D0008FB2884229D3DB1B9BB29A4209D8E77967
:1052E000FF0906D1E068002801D000F04DFF38002A
:1052F000F8BD95421ED32B009B1A9BB29342FBD262
:10530000E28820685204520C53433100C018FDF764
:10531000A3FB6B1C9BB2A2889D4218D900235200AC
:105320009B1A9BB201272381DCE75100C91B5B1844
:105330009BB2D2E72B00E28820685204520C534300
:105340003100C018FDF788FB0135A288ABB25200CE
:105350009342E7DBE4E7C046F0B557464546DE46F4
:105360004E46E0B5140005000F0083B0002A75D04A
:10537000C068002803D00121494200F025FF2E8992
:10538000E9796A89AB88B6B292B2C90945D1964229
:1053900000D36DE059008A1AB21892B200218946F2
:1053A0009A4234D29A1A111C92B2A24200D9211CFC
:1053B0008AB29146EA885204520C90464A46B21884
:1053C00092B292464A46D21A92B2934634009E4214
:1053D00003D3E41AA4B29C42FBD24246624328683B
:1053E0001B1B9BB2801842464B4554D34B46390099
:1053F0005A43FDF731FBAB885B00564501D89A450F
:1054000003DB5246D31A9BB29A4653462B81E86877
:10541000002825D000F0B8FE22E0E9884904490CB4
:1054200088469C4227D2964247D3B11A89B28C460D
:105430005800E11A89B28B4661460919814208DB9E
:10544000D11889B20E1BB6B28A46B2423BD9361A7F
:10545000B6B2A21992B29246A146B7E70023994686
:10546000484603B0F0BCBB46B246A946A046F0BDD4
:10547000B21A92B292E700218946002BC7D041466A
:10548000E41A4C431600D118002289B28A46994684
:1054900093463F199AE753439BB21A0039005C4484
:1054A0000193FDF7D9FA414622004A43019B28683F
:1054B00092B2F918FDF7D0FA9DE75800811A7118D9
:1054C00089B28C46B5E7A146B04200DD7EE7BEE773
:1054D00010B50400C068002803D00121494200F043
:1054E00073FE2069002803D00121494200F06CFEC0
:1054F0000023E06863812381002801D000F044FE8E
:105500002069002801D000F03FFE012010BDC046F8
:1055100070B50400C0680D00002803D00121494285
:1055200000F052FE2069002803D00121494200F01A
:105530004BFE7F21E379ED011940E0682943E171D9
:10554000002801D000F020FE2069002801D000F0E2
:105550001BFE012070BDC04601230121084A1360D3
:10556000084A1360084A080013689843FBD1074AA9
:1055700011608021490013680B42FCD07047C0467F
:1055800000E0004000F0004008C0004000C00440BF
:10559000F0B557464E46DE4645468446E0B583B0F4
:1055A0001F000CAB18786346914600221B680190DF
:1055B000DA6601325960DA66002F4FDD7A1E9046B6
:1055C0006246127901269202802493463A004640B0
:1055D000760280253700002046461021A2469046DC
:1055E000AD00841B624254414A4664423C400094F0
:1055F0005C46125C2243009C22431A615A6B1142A2
:10560000FCD052469C58002C10D1B04221D0002230
:10561000013093468045E4D16346019A1A7103B084
:10562000F0BCBB46B246A946A046F0BD5A6D012269
:1056300093465A6B2A42FCD01A6E5A46002AE6D08C
:10564000002C03D0E30701D42407E5D40120404215
:10565000E2E7019A002ADAD19346EAE70020DBE785
:10566000F8B5DE4657464E4645468346E0B505202A
:105670000C00FCF707FF0600600821008019FDF709
:10568000E9F8430098468044070005214046FDF7AD
:10569000E1F83B1A9A461E4B8146700080199C42E5
:1056A00031D81C49FDF7D6F8451C5B461C68002321
:1056B000E366226804335A400233134080225201C9
:1056C000A21813605346E3614B4623624346012010
:1056D0004F2B03D950214046FDF7BCF8A023E050E2
:1056E000E36F39005D400C4B2D042D0CE3181D6059
:1056F00001233000E366FDF7ADF8F0BCBB46B246CF
:10570000A946A046F8BD0549FDF7A4F8451CCCE71D
:105710003F420F00809698007C10000040787D0189
:105720000F4A70B5821A531E9A410E4BD2000832AE
:105730001A600D4B0D4C1A60150023689D432B1EFB
:10574000FAD166240268FF340571D5661460633CA3
:105750008833FF3CD5639563D450FFF781FF70BD5C
:105760006010002000E0004000F0004008C0004051
:1057700010B582B004AC24780094FFF709FF02B0A2
:1057800010BDC046030010B50A000349086819009F
:1057900000F004F810BDC0467814002070B50B0C62
:1057A0000024150C002B28D1002D3CD18BB291B2D6
:1057B000594300F047F8051E33D00300083B5A68F0
:1057C00003239A43043A242A12D80300132A0AD93D
:1057D0000460446008331B2A05D98460C460242A0D
:1057E0002AD00300103300221A605A609A6002E047
:1057F0000021FDF72BF9280070BD002D16D1151CD6
:1058000089B292B24A43ADB29BB26B43110C5B18A2
:10581000190C0BD1190492B2114300F013F8051EB4
:10582000CBD10025E7E72B1C0D1CE9E700F00EFBB0
:105830000C2300250360DEE7030004611833446194
:10584000D1E7C046F0B54E464546DE465746E0B580
:105850000D000B35060085B0162D27D8102900D96C
:10586000DAE000F0D1FA102518230221C74FFB1807
:105870001A005C68083A944200D146E1032263684A
:10588000A1689343E268CA6091600121E3185A68F5
:1058900030000A435A6000F0BFFA2000083005B01B
:1058A000F0BCBB46B246A946A046F0BD07239D43C7
:1058B00000D5B1E0A94200D9AEE000F0A5FAFC2382
:1058C0005B009D4200D29AE1690A00D1A8E0042958
:1058D00000D94FE138239846A90988443931CB00D3
:1058E000082252429446A94FFB189C446346DC6848
:1058F000A44514D0032399460B0061469C4607E05B
:10590000E068002A00DBFAE0814200D1FBE00400FD
:105910004A46636893435A1B0F2AF1DD41463A0019
:105920003C690832944200D1D8E003206368834385
:10593000581B0F2800DD66E13A617A610028A4DA7D
:105940007A68904680229200934200D3E3E0DA081E
:10595000580901238340404618438046D300DB1991
:105960009A687860E360A2609C60D46001208B102C
:10597000984040455CD8434603420AD103239943EB
:10598000434640000431034203D140000431034246
:10599000FBD00323B3469C460E00B8460190F000AE
:1059A00040440100B246CB680BE064465A681F00D1
:1059B000A243DB68541B0F2C00DDF3E0002C00DB5E
:1059C0000DE19942F1D101239946CA445346083169
:1059D0009B07E8D1032205E003680838013E8342B3
:1059E00000D00AE23242F7D14346019A5B68934302
:1059F00042465360019A520001929A4216D8002AF8
:105A000006D113E004229146019ACA445200019241
:105A10001342F7D05646C2E70C23002033603EE71E
:105A200080233F22402190469B0059E75E4647462F
:105A30000322BC68636893439946AB4202D35B1B65
:105A40000F2B4EDC23004B440293514B08201B6864
:105A500010335B19019300F003FA4E4903900B6871
:105A60008B46013306D08446019B4242013B63448E
:105A7000134001933000019900F0D6F903008046ED
:105A8000013300D1DDE0029B834200D9D7E0019AC7
:105A9000414B944619689A466144039A1960029BE7
:105AA0000800013A434500D0EAE04346134200D0E3
:105AB000E6E0BB68984663464B441A0001231A434C
:105AC00043465A60354B1868884200D21960344BFF
:105AD0001868884200D219604446B4E07B68984652
